{
  "contractName": "Pot",
  "abi": [
    {
      "inputs": [
        {
          "name": "_minimumContribution",
          "type": "uint256"
        }
      ],
      "payable": false,
      "stateMutability": "nonpayable",
      "type": "constructor"
    },
    {
      "payable": true,
      "stateMutability": "payable",
      "type": "fallback"
    },
    {
      "constant": false,
      "inputs": [],
      "name": "kill",
      "outputs": [],
      "payable": false,
      "stateMutability": "nonpayable",
      "type": "function"
    },
    {
      "constant": false,
      "inputs": [
        {
          "name": "contributor",
          "type": "address"
        }
      ],
      "name": "checkContributorExists",
      "outputs": [
        {
          "name": "",
          "type": "bool"
        }
      ],
      "payable": false,
      "stateMutability": "nonpayable",
      "type": "function"
    },
    {
      "constant": false,
      "inputs": [
        {
          "name": "number",
          "type": "uint256"
        }
      ],
      "name": "putInMoney",
      "outputs": [],
      "payable": true,
      "stateMutability": "payable",
      "type": "function"
    },
    {
      "constant": false,
      "inputs": [],
      "name": "returnMoney",
      "outputs": [],
      "payable": false,
      "stateMutability": "nonpayable",
      "type": "function"
    }
  ],
  "bytecode": "0x6060604052341561000f57600080fd5b6040516020806105aa83398101604052808051906020019091905050336000806101000a81548173ffffffffffffffffffffffffffffffffffffffff021916908373ffffffffffffffffffffffffffffffffffffffff160217905550600060018190555060008114151561008557806002819055505b50610515806100956000396000f300606060405260043610610062576000357c0100000000000000000000000000000000000000000000000000000000900463ffffffff16806341c0e1b51461006457806356ec588c1461007957806393119312146100ca578063c42fe119146100df575b005b341561006f57600080fd5b6100776100f7565b005b341561008457600080fd5b6100b0600480803573ffffffffffffffffffffffffffffffffffffffff16906020019091905050610188565b604051808215151515815260200191505060405180910390f35b34156100d557600080fd5b6100dd61022c565b005b6100f5600480803590602001909190505061034b565b005b6000809054906101000a900473ffffffffffffffffffffffffffffffffffffffff1673ffffffffffffffffffffffffffffffffffffffff163373ffffffffffffffffffffffffffffffffffffffff161415610186576000809054906101000a900473ffffffffffffffffffffffffffffffffffffffff1673ffffffffffffffffffffffffffffffffffffffff16ff5b565b600080600090505b600380549050811015610221578273ffffffffffffffffffffffffffffffffffffffff166003828154811015156101c357fe5b906000526020600020900160009054906101000a900473ffffffffffffffffffffffffffffffffffffffff1673ffffffffffffffffffffffffffffffffffffffff1614156102145760019150610226565b8080600101915050610190565b600091505b50919050565b600080600091505b600380549050821015610347576004600060038481548110151561025457fe5b906000526020600020900160009054906101000a900473ffffffffffffffffffffffffffffffffffffffff1673ffffffffffffffffffffffffffffffffffffffff1673ffffffffffffffffffffffffffffffffffffffff1681526020019081526020016000206001015490506003828154811015156102cf57fe5b906000526020600020900160009054906101000a900473ffffffffffffffffffffffffffffffffffffffff1673ffffffffffffffffffffffffffffffffffffffff166108fc829081150290604051600060405180830381858888f19350505050151561033a57600080fd5b8180600101925050610234565b5050565b6000151561035833610188565b151514151561036357fe5b600181101580156103755750600a8111155b151561037d57fe5b600254341015151561038b57fe5b34600460003373ffffffffffffffffffffffffffffffffffffffff1673ffffffffffffffffffffffffffffffffffffffff1681526020019081526020016000206000018190555034600460003373ffffffffffffffffffffffffffffffffffffffff1673ffffffffffffffffffffffffffffffffffffffff16815260200190815260200160002060010160008282540192505081905550600380548060010182816104369190610498565b9160005260206000209001600033909190916101000a81548173ffffffffffffffffffffffffffffffffffffffff021916908373ffffffffffffffffffffffffffffffffffffffff160217905550503460016000828254019250508190555050565b8154818355818115116104bf578183600052602060002091820191016104be91906104c4565b5b505050565b6104e691905b808211156104e25760008160009055506001016104ca565b5090565b905600a165627a7a7230582052c027279513534e17aa5491efb22f583f32a7319669a148a8e5b4c58821ce3e0029",
  "source": "pragma solidity ^0.4.19;\r\n\r\ncontract Pot {\r\n\taddress owner;\r\n\tuint total;\r\n\tuint minimumContribution;\r\n    address[] contributors;\r\n\tfunction Pot(uint _minimumContribution) {\r\n\t\towner = msg.sender;\r\n\t\ttotal = 0;\r\n\t\tif(_minimumContribution != 0) minimumContribution = _minimumContribution;\r\n\t}\r\n\r\n\tfunction kill() { \r\n\t\tif(msg.sender == owner)\r\n\t\t\tselfdestruct(owner);\r\n\t}\r\n\r\n\tstruct Contributor { \r\n\t\tuint amountIn;\r\n\t\tuint totalContributed;\r\n\t}\r\n\tmapping(address => Contributor) contributorInfo;\r\n\r\n\tfunction checkContributorExists(address contributor) returns(bool) {\r\n\t\tfor(uint i = 0; i < contributors.length; i++) {\r\n\t\t\tif(contributors[i] == contributor) return true;\r\n\t\t}\r\n\t\treturn false;\r\n\t} \r\n\r\n\tfunction putInMoney(uint number) payable{\r\n\t\tassert(checkContributorExists(msg.sender) == false);\r\n\t\tassert(number >= 1 && number <=10);\r\n\t\tassert(msg.value >= minimumContribution);\r\n\r\n\t\tcontributorInfo[msg.sender].amountIn = msg.value;\r\n\t\tcontributorInfo[msg.sender].totalContributed += msg.value;\r\n\t\tcontributors.push(msg.sender);\r\n\t\ttotal += msg.value;\r\n\r\n\t}\r\n\r\n\tfunction returnMoney() {\r\n\t\tfor(uint i = 0; i < contributors.length; i++) {\r\n\t\t    uint moneyIn = contributorInfo[contributors[i]].totalContributed;\r\n\t\t\tcontributors[i].transfer(moneyIn);\r\n\t\t}\r\n\t}\r\n\r\n\tfunction () payable {}\r\n}\r\n",
  "sourcePath": "C:\\nodeProjects\\react-solidity-demo\\contracts\\Pot.sol",
  "compiler": {
    "name": "solc",
    "version": "0.4.19+commit.c4cbbb05.Emscripten.clang"
  },
  "schemaVersion": "1.0.1",
  "updatedAt": "2018-02-20T23:25:07.094Z"
}